{
  "_format": "hh-sol-artifact-1",
  "contractName": "SocialX",
  "sourceName": "contracts/SocialX.sol",
  "abi": [
    {
      "anonymous": false,
      "inputs": [
        {
          "indexed": false,
          "internalType": "uint256",
          "name": "id",
          "type": "uint256"
        },
        {
          "indexed": false,
          "internalType": "address",
          "name": "author",
          "type": "address"
        },
        {
          "indexed": false,
          "internalType": "string",
          "name": "content",
          "type": "string"
        },
        {
          "indexed": false,
          "internalType": "uint256",
          "name": "timestamp",
          "type": "uint256"
        }
      ],
      "name": "ContentCreated",
      "type": "event"
    },
    {
      "inputs": [],
      "name": "MAX_TWEET_LENGTH",
      "outputs": [
        {
          "internalType": "uint16",
          "name": "",
          "type": "uint16"
        }
      ],
      "stateMutability": "view",
      "type": "function"
    },
    {
      "inputs": [
        {
          "internalType": "string",
          "name": "_content",
          "type": "string"
        }
      ],
      "name": "createPost",
      "outputs": [],
      "stateMutability": "nonpayable",
      "type": "function"
    },
    {
      "inputs": [],
      "name": "getAllPosts",
      "outputs": [
        {
          "components": [
            {
              "internalType": "uint256",
              "name": "id",
              "type": "uint256"
            },
            {
              "internalType": "address",
              "name": "author",
              "type": "address"
            },
            {
              "internalType": "string",
              "name": "content",
              "type": "string"
            },
            {
              "internalType": "uint256",
              "name": "likes",
              "type": "uint256"
            },
            {
              "internalType": "address[]",
              "name": "likers",
              "type": "address[]"
            },
            {
              "internalType": "uint256",
              "name": "hates",
              "type": "uint256"
            },
            {
              "internalType": "address[]",
              "name": "haters",
              "type": "address[]"
            },
            {
              "internalType": "uint256",
              "name": "timestamp",
              "type": "uint256"
            }
          ],
          "internalType": "struct SocialX.Post[]",
          "name": "",
          "type": "tuple[]"
        }
      ],
      "stateMutability": "view",
      "type": "function"
    },
    {
      "inputs": [
        {
          "internalType": "address",
          "name": "author",
          "type": "address"
        }
      ],
      "name": "getAuthorPosts",
      "outputs": [
        {
          "components": [
            {
              "internalType": "uint256",
              "name": "id",
              "type": "uint256"
            },
            {
              "internalType": "address",
              "name": "author",
              "type": "address"
            },
            {
              "internalType": "string",
              "name": "content",
              "type": "string"
            },
            {
              "internalType": "uint256",
              "name": "likes",
              "type": "uint256"
            },
            {
              "internalType": "address[]",
              "name": "likers",
              "type": "address[]"
            },
            {
              "internalType": "uint256",
              "name": "hates",
              "type": "uint256"
            },
            {
              "internalType": "address[]",
              "name": "haters",
              "type": "address[]"
            },
            {
              "internalType": "uint256",
              "name": "timestamp",
              "type": "uint256"
            }
          ],
          "internalType": "struct SocialX.Post[]",
          "name": "",
          "type": "tuple[]"
        }
      ],
      "stateMutability": "view",
      "type": "function"
    },
    {
      "inputs": [
        {
          "internalType": "address",
          "name": "_author",
          "type": "address"
        },
        {
          "internalType": "uint256",
          "name": "_postId",
          "type": "uint256"
        }
      ],
      "name": "getPostHaters",
      "outputs": [
        {
          "internalType": "address[]",
          "name": "",
          "type": "address[]"
        }
      ],
      "stateMutability": "view",
      "type": "function"
    },
    {
      "inputs": [
        {
          "internalType": "address",
          "name": "_author",
          "type": "address"
        },
        {
          "internalType": "uint256",
          "name": "_postId",
          "type": "uint256"
        }
      ],
      "name": "getPostHates",
      "outputs": [
        {
          "internalType": "uint256",
          "name": "",
          "type": "uint256"
        }
      ],
      "stateMutability": "view",
      "type": "function"
    },
    {
      "inputs": [
        {
          "internalType": "address",
          "name": "_author",
          "type": "address"
        },
        {
          "internalType": "uint256",
          "name": "_postId",
          "type": "uint256"
        }
      ],
      "name": "getPostLikers",
      "outputs": [
        {
          "internalType": "address[]",
          "name": "",
          "type": "address[]"
        }
      ],
      "stateMutability": "view",
      "type": "function"
    },
    {
      "inputs": [
        {
          "internalType": "address",
          "name": "_author",
          "type": "address"
        },
        {
          "internalType": "uint256",
          "name": "_postId",
          "type": "uint256"
        }
      ],
      "name": "getPostLikes",
      "outputs": [
        {
          "internalType": "uint256",
          "name": "",
          "type": "uint256"
        }
      ],
      "stateMutability": "view",
      "type": "function"
    },
    {
      "inputs": [
        {
          "internalType": "address",
          "name": "_author",
          "type": "address"
        },
        {
          "internalType": "uint256",
          "name": "_postId",
          "type": "uint256"
        }
      ],
      "name": "likePost",
      "outputs": [],
      "stateMutability": "nonpayable",
      "type": "function"
    },
    {
      "inputs": [
        {
          "internalType": "address",
          "name": "_author",
          "type": "address"
        },
        {
          "internalType": "uint256",
          "name": "_postId",
          "type": "uint256"
        }
      ],
      "name": "unlikePost",
      "outputs": [],
      "stateMutability": "nonpayable",
      "type": "function"
    }
  ],
  "bytecode": "0x6080604052610118600360006101000a81548161ffff021916908361ffff16021790555034801561002f57600080fd5b506134938061003f6000396000f3fe608060405234801561001057600080fd5b506004361061009e5760003560e01c8063831142401161006657806383114240146101475780639900360614610177578063aaec09f0146101a7578063c7303c61146101d7578063fe5b6799146101f35761009e565b806330561100146100a357806348351529146100c15780636825bccc146100dd5780636eb107971461010d578063756f77301461012b575b600080fd5b6100ab610223565b6040516100b89190612a8c565b60405180910390f35b6100db60048036038101906100d69190612b1a565b6104af565b005b6100f760048036038101906100f29190612b1a565b6110c7565b6040516101049190612bc9565b60405180910390f35b6101156111b7565b6040516101229190612c08565b60405180910390f35b61014560048036038101906101409190612b1a565b6111cb565b005b610161600480360381019061015c9190612b1a565b611de3565b60405161016e9190612bc9565b60405180910390f35b610191600480360381019061018c9190612b1a565b611ed3565b60405161019e9190612c32565b60405180910390f35b6101c160048036038101906101bc9190612b1a565b611f3f565b6040516101ce9190612c32565b60405180910390f35b6101f160048036038101906101ec9190612d82565b611fab565b005b61020d60048036038101906102089190612dcb565b612402565b60405161021a9190612a8c565b60405180910390f35b60606001805480602002602001604051908101604052809291908181526020016000905b828210156104a6578382906000526020600020906008020160405180610100016040529081600082015481526020016001820160009054906101000a900473ffffffffffffffffffffffffffffffffffffffff1673ffffffffffffffffffffffffffffffffffffffff1673ffffffffffffffffffffffffffffffffffffffff1681526020016002820180546102db90612e27565b80601f016020809104026020016040519081016040528092919081815260200182805461030790612e27565b80156103545780601f1061032957610100808354040283529160200191610354565b820191906000526020600020905b81548152906001019060200180831161033757829003601f168201915b5050505050815260200160038201548152602001600482018054806020026020016040519081016040528092919081815260200182805480156103ec57602002820191906000526020600020905b8160009054906101000a900473ffffffffffffffffffffffffffffffffffffffff1673ffffffffffffffffffffffffffffffffffffffff16815260200190600101908083116103a2575b50505050508152602001600582015481526020016006820180548060200260200160405190810160405280929190818152602001828054801561048457602002820191906000526020600020905b8160009054906101000a900473ffffffffffffffffffffffffffffffffffffffff1673ffffffffffffffffffffffffffffffffffffffff168152602001906001019080831161043a575b5050505050815260200160078201548152505081526020019060010190610247565b50505050905090565b806000808473ffffffffffffffffffffffffffffffffffffffff1673ffffffffffffffffffffffffffffffffffffffff1681526020019081526020016000208281548110610500576104ff612e58565b5b90600052602060002090600802016000015414610552576040517f08c379a000000000000000000000000000000000000000000000000000000000815260040161054990612ee4565b60405180910390fd5b60005b6000808473ffffffffffffffffffffffffffffffffffffffff1673ffffffffffffffffffffffffffffffffffffffff16815260200190815260200160002082815481106105a5576105a4612e58565b5b9060005260206000209060080201600401805490508110156106d9573373ffffffffffffffffffffffffffffffffffffffff166000808573ffffffffffffffffffffffffffffffffffffffff1673ffffffffffffffffffffffffffffffffffffffff168152602001908152602001600020838154811061062857610627612e58565b5b9060005260206000209060080201600401828154811061064b5761064a612e58565b5b9060005260206000200160009054906101000a900473ffffffffffffffffffffffffffffffffffffffff1673ffffffffffffffffffffffffffffffffffffffff16036106cc576040517f08c379a00000000000000000000000000000000000000000000000000000000081526004016106c390612f50565b60405180910390fd5b8080600101915050610555565b5060005b6000808473ffffffffffffffffffffffffffffffffffffffff1673ffffffffffffffffffffffffffffffffffffffff168152602001908152602001600020828154811061072d5761072c612e58565b5b906000526020600020906008020160060180549050811015610b69573373ffffffffffffffffffffffffffffffffffffffff166000808573ffffffffffffffffffffffffffffffffffffffff1673ffffffffffffffffffffffffffffffffffffffff16815260200190815260200160002083815481106107b0576107af612e58565b5b906000526020600020906008020160060182815481106107d3576107d2612e58565b5b9060005260206000200160009054906101000a900473ffffffffffffffffffffffffffffffffffffffff1673ffffffffffffffffffffffffffffffffffffffff1603610b5c576000808473ffffffffffffffffffffffffffffffffffffffff1673ffffffffffffffffffffffffffffffffffffffff168152602001908152602001600020828154811061086957610868612e58565b5b906000526020600020906008020160060160016000808673ffffffffffffffffffffffffffffffffffffffff1673ffffffffffffffffffffffffffffffffffffffff16815260200190815260200160002084815481106108cc576108cb612e58565b5b9060005260206000209060080201600601805490506108eb9190612f9f565b815481106108fc576108fb612e58565b5b9060005260206000200160009054906101000a900473ffffffffffffffffffffffffffffffffffffffff166000808573ffffffffffffffffffffffffffffffffffffffff1673ffffffffffffffffffffffffffffffffffffffff168152602001908152602001600020838154811061097757610976612e58565b5b9060005260206000209060080201600601828154811061099a57610999612e58565b5b9060005260206000200160006101000a81548173ffffffffffffffffffffffffffffffffffffffff021916908373ffffffffffffffffffffffffffffffffffffffff1602179055506000808473ffffffffffffffffffffffffffffffffffffffff1673ffffffffffffffffffffffffffffffffffffffff1681526020019081526020016000208281548110610a3257610a31612e58565b5b9060005260206000209060080201600601805480610a5357610a52612fd3565b5b6001900381819060005260206000200160006101000a81549073ffffffffffffffffffffffffffffffffffffffff0219169055905560016000808573ffffffffffffffffffffffffffffffffffffffff1673ffffffffffffffffffffffffffffffffffffffff1681526020019081526020016000208381548110610ada57610ad9612e58565b5b906000526020600020906008020160050154610af69190612f9f565b6000808573ffffffffffffffffffffffffffffffffffffffff1673ffffffffffffffffffffffffffffffffffffffff1681526020019081526020016000208381548110610b4657610b45612e58565b5b9060005260206000209060080201600501819055505b80806001019150506106dd565b506000808373ffffffffffffffffffffffffffffffffffffffff1673ffffffffffffffffffffffffffffffffffffffff1681526020019081526020016000208181548110610bba57610bb9612e58565b5b9060005260206000209060080201600401339080600181540180825580915050600190039060005260206000200160009091909190916101000a81548173ffffffffffffffffffffffffffffffffffffffff021916908373ffffffffffffffffffffffffffffffffffffffff1602179055506000808373ffffffffffffffffffffffffffffffffffffffff1673ffffffffffffffffffffffffffffffffffffffff1681526020019081526020016000208181548110610c7c57610c7b612e58565b5b90600052602060002090600802016003016000815480929190610c9e90613002565b919050555060005b6001805490508110156110c2578160018281548110610cc857610cc7612e58565b5b906000526020600020906008020160000154148015610d5757508273ffffffffffffffffffffffffffffffffffffffff1660018281548110610d0d57610d0c612e58565b5b906000526020600020906008020160010160009054906101000a900473ffffffffffffffffffffffffffffffffffffffff1673ffffffffffffffffffffffffffffffffffffffff16145b156110b55760018181548110610d7057610d6f612e58565b5b9060005260206000209060080201600401339080600181540180825580915050600190039060005260206000200160009091909190916101000a81548173ffffffffffffffffffffffffffffffffffffffff021916908373ffffffffffffffffffffffffffffffffffffffff16021790555060018181548110610df657610df5612e58565b5b90600052602060002090600802016003016000815480929190610e1890613002565b919050555060005b60018281548110610e3457610e33612e58565b5b9060005260206000209060080201600601805490508110156110af573373ffffffffffffffffffffffffffffffffffffffff1660018381548110610e7b57610e7a612e58565b5b90600052602060002090600802016006018281548110610e9e57610e9d612e58565b5b9060005260206000200160009054906101000a900473ffffffffffffffffffffffffffffffffffffffff1673ffffffffffffffffffffffffffffffffffffffff16036110a25760018281548110610ef857610ef7612e58565b5b90600052602060002090600802016006016001808481548110610f1e57610f1d612e58565b5b906000526020600020906008020160060180549050610f3d9190612f9f565b81548110610f4e57610f4d612e58565b5b9060005260206000200160009054906101000a900473ffffffffffffffffffffffffffffffffffffffff1660018381548110610f8d57610f8c612e58565b5b90600052602060002090600802016006018281548110610fb057610faf612e58565b5b9060005260206000200160006101000a81548173ffffffffffffffffffffffffffffffffffffffff021916908373ffffffffffffffffffffffffffffffffffffffff1602179055506001828154811061100c5761100b612e58565b5b906000526020600020906008020160060180548061102d5761102c612fd3565b5b6001900381819060005260206000200160006101000a81549073ffffffffffffffffffffffffffffffffffffffff021916905590556001828154811061107657611075612e58565b5b906000526020600020906008020160050160008154809291906110989061304a565b91905055506110af565b8080600101915050610e20565b506110c2565b8080600101915050610ca6565b505050565b60606000808473ffffffffffffffffffffffffffffffffffffffff1673ffffffffffffffffffffffffffffffffffffffff168152602001908152602001600020828154811061111957611118612e58565b5b90600052602060002090600802016006018054806020026020016040519081016040528092919081815260200182805480156111aa57602002820191906000526020600020905b8160009054906101000a900473ffffffffffffffffffffffffffffffffffffffff1673ffffffffffffffffffffffffffffffffffffffff1681526020019060010190808311611160575b5050505050905092915050565b600360009054906101000a900461ffff1681565b806000808473ffffffffffffffffffffffffffffffffffffffff1673ffffffffffffffffffffffffffffffffffffffff168152602001908152602001600020828154811061121c5761121b612e58565b5b9060005260206000209060080201600001541461126e576040517f08c379a000000000000000000000000000000000000000000000000000000000815260040161126590612ee4565b60405180910390fd5b60005b6000808473ffffffffffffffffffffffffffffffffffffffff1673ffffffffffffffffffffffffffffffffffffffff16815260200190815260200160002082815481106112c1576112c0612e58565b5b9060005260206000209060080201600601805490508110156113f5573373ffffffffffffffffffffffffffffffffffffffff166000808573ffffffffffffffffffffffffffffffffffffffff1673ffffffffffffffffffffffffffffffffffffffff168152602001908152602001600020838154811061134457611343612e58565b5b9060005260206000209060080201600601828154811061136757611366612e58565b5b9060005260206000200160009054906101000a900473ffffffffffffffffffffffffffffffffffffffff1673ffffffffffffffffffffffffffffffffffffffff16036113e8576040517f08c379a00000000000000000000000000000000000000000000000000000000081526004016113df906130bf565b60405180910390fd5b8080600101915050611271565b5060005b6000808473ffffffffffffffffffffffffffffffffffffffff1673ffffffffffffffffffffffffffffffffffffffff168152602001908152602001600020828154811061144957611448612e58565b5b906000526020600020906008020160040180549050811015611885573373ffffffffffffffffffffffffffffffffffffffff166000808573ffffffffffffffffffffffffffffffffffffffff1673ffffffffffffffffffffffffffffffffffffffff16815260200190815260200160002083815481106114cc576114cb612e58565b5b906000526020600020906008020160040182815481106114ef576114ee612e58565b5b9060005260206000200160009054906101000a900473ffffffffffffffffffffffffffffffffffffffff1673ffffffffffffffffffffffffffffffffffffffff1603611878576000808473ffffffffffffffffffffffffffffffffffffffff1673ffffffffffffffffffffffffffffffffffffffff168152602001908152602001600020828154811061158557611584612e58565b5b906000526020600020906008020160040160016000808673ffffffffffffffffffffffffffffffffffffffff1673ffffffffffffffffffffffffffffffffffffffff16815260200190815260200160002084815481106115e8576115e7612e58565b5b9060005260206000209060080201600401805490506116079190612f9f565b8154811061161857611617612e58565b5b9060005260206000200160009054906101000a900473ffffffffffffffffffffffffffffffffffffffff166000808573ffffffffffffffffffffffffffffffffffffffff1673ffffffffffffffffffffffffffffffffffffffff168152602001908152602001600020838154811061169357611692612e58565b5b906000526020600020906008020160040182815481106116b6576116b5612e58565b5b9060005260206000200160006101000a81548173ffffffffffffffffffffffffffffffffffffffff021916908373ffffffffffffffffffffffffffffffffffffffff1602179055506000808473ffffffffffffffffffffffffffffffffffffffff1673ffffffffffffffffffffffffffffffffffffffff168152602001908152602001600020828154811061174e5761174d612e58565b5b906000526020600020906008020160040180548061176f5761176e612fd3565b5b6001900381819060005260206000200160006101000a81549073ffffffffffffffffffffffffffffffffffffffff0219169055905560016000808573ffffffffffffffffffffffffffffffffffffffff1673ffffffffffffffffffffffffffffffffffffffff16815260200190815260200160002083815481106117f6576117f5612e58565b5b9060005260206000209060080201600301546118129190612f9f565b6000808573ffffffffffffffffffffffffffffffffffffffff1673ffffffffffffffffffffffffffffffffffffffff168152602001908152602001600020838154811061186257611861612e58565b5b9060005260206000209060080201600301819055505b80806001019150506113f9565b506000808373ffffffffffffffffffffffffffffffffffffffff1673ffffffffffffffffffffffffffffffffffffffff16815260200190815260200160002081815481106118d6576118d5612e58565b5b9060005260206000209060080201600601339080600181540180825580915050600190039060005260206000200160009091909190916101000a81548173ffffffffffffffffffffffffffffffffffffffff021916908373ffffffffffffffffffffffffffffffffffffffff1602179055506000808373ffffffffffffffffffffffffffffffffffffffff1673ffffffffffffffffffffffffffffffffffffffff168152602001908152602001600020818154811061199857611997612e58565b5b906000526020600020906008020160050160008154809291906119ba90613002565b919050555060005b600180549050811015611dde5781600182815481106119e4576119e3612e58565b5b906000526020600020906008020160000154148015611a7357508273ffffffffffffffffffffffffffffffffffffffff1660018281548110611a2957611a28612e58565b5b906000526020600020906008020160010160009054906101000a900473ffffffffffffffffffffffffffffffffffffffff1673ffffffffffffffffffffffffffffffffffffffff16145b15611dd15760018181548110611a8c57611a8b612e58565b5b9060005260206000209060080201600601339080600181540180825580915050600190039060005260206000200160009091909190916101000a81548173ffffffffffffffffffffffffffffffffffffffff021916908373ffffffffffffffffffffffffffffffffffffffff16021790555060018181548110611b1257611b11612e58565b5b90600052602060002090600802016005016000815480929190611b3490613002565b919050555060005b60018281548110611b5057611b4f612e58565b5b906000526020600020906008020160040180549050811015611dcb573373ffffffffffffffffffffffffffffffffffffffff1660018381548110611b9757611b96612e58565b5b90600052602060002090600802016004018281548110611bba57611bb9612e58565b5b9060005260206000200160009054906101000a900473ffffffffffffffffffffffffffffffffffffffff1673ffffffffffffffffffffffffffffffffffffffff1603611dbe5760018281548110611c1457611c13612e58565b5b90600052602060002090600802016004016001808481548110611c3a57611c39612e58565b5b906000526020600020906008020160040180549050611c599190612f9f565b81548110611c6a57611c69612e58565b5b9060005260206000200160009054906101000a900473ffffffffffffffffffffffffffffffffffffffff1660018381548110611ca957611ca8612e58565b5b90600052602060002090600802016004018281548110611ccc57611ccb612e58565b5b9060005260206000200160006101000a81548173ffffffffffffffffffffffffffffffffffffffff021916908373ffffffffffffffffffffffffffffffffffffffff16021790555060018281548110611d2857611d27612e58565b5b9060005260206000209060080201600401805480611d4957611d48612fd3565b5b6001900381819060005260206000200160006101000a81549073ffffffffffffffffffffffffffffffffffffffff0219169055905560018281548110611d9257611d91612e58565b5b90600052602060002090600802016003016000815480929190611db49061304a565b9190505550611dcb565b8080600101915050611b3c565b50611dde565b80806001019150506119c2565b505050565b60606000808473ffffffffffffffffffffffffffffffffffffffff1673ffffffffffffffffffffffffffffffffffffffff1681526020019081526020016000208281548110611e3557611e34612e58565b5b9060005260206000209060080201600401805480602002602001604051908101604052809291908181526020018280548015611ec657602002820191906000526020600020905b8160009054906101000a900473ffffffffffffffffffffffffffffffffffffffff1673ffffffffffffffffffffffffffffffffffffffff1681526020019060010190808311611e7c575b5050505050905092915050565b60008060008473ffffffffffffffffffffffffffffffffffffffff1673ffffffffffffffffffffffffffffffffffffffff1681526020019081526020016000208281548110611f2557611f24612e58565b5b906000526020600020906008020160050154905092915050565b60008060008473ffffffffffffffffffffffffffffffffffffffff1673ffffffffffffffffffffffffffffffffffffffff1681526020019081526020016000208281548110611f9157611f90612e58565b5b906000526020600020906008020160030154905092915050565b600360009054906101000a900461ffff1661ffff1681511115612003576040517f08c379a0000000000000000000000000000000000000000000000000000000008152600401611ffa9061312b565b60405180910390fd5b600060405180610100016040528060018054905081526020013373ffffffffffffffffffffffffffffffffffffffff1681526020018381526020016000815260200160028054806020026020016040519081016040528092919081815260200182805480156120c757602002820191906000526020600020905b8160009054906101000a900473ffffffffffffffffffffffffffffffffffffffff1673ffffffffffffffffffffffffffffffffffffffff168152602001906001019080831161207d575b5050505050815260200160008152602001600280548060200260200160405190810160405280929190818152602001828054801561215a57602002820191906000526020600020905b8160009054906101000a900473ffffffffffffffffffffffffffffffffffffffff1673ffffffffffffffffffffffffffffffffffffffff1681526020019060010190808311612110575b505050505081526020014281525090506000803373ffffffffffffffffffffffffffffffffffffffff1673ffffffffffffffffffffffffffffffffffffffff1681526020019081526020016000208190806001815401808255809150506001900390600052602060002090600802016000909190919091506000820151816000015560208201518160010160006101000a81548173ffffffffffffffffffffffffffffffffffffffff021916908373ffffffffffffffffffffffffffffffffffffffff160217905550604082015181600201908161223891906132f7565b5060608201518160030155608082015181600401908051906020019061225f9291906126cc565b5060a0820151816005015560c08201518160060190805190602001906122869291906126cc565b5060e08201518160070155505060018190806001815401808255809150506001900390600052602060002090600802016000909190919091506000820151816000015560208201518160010160006101000a81548173ffffffffffffffffffffffffffffffffffffffff021916908373ffffffffffffffffffffffffffffffffffffffff160217905550604082015181600201908161232591906132f7565b5060608201518160030155608082015181600401908051906020019061234c9291906126cc565b5060a0820151816005015560c08201518160060190805190602001906123739291906126cc565b5060e0820151816007015550507f412c27a7318aac9979dd1ff80a6b3eb3bc35c9a8c22b7b75d7959605180ab9ac6000803373ffffffffffffffffffffffffffffffffffffffff1673ffffffffffffffffffffffffffffffffffffffff168152602001908152602001600020805490503384426040516123f69493929190613411565b60405180910390a15050565b60606000808373ffffffffffffffffffffffffffffffffffffffff1673ffffffffffffffffffffffffffffffffffffffff168152602001908152602001600020805480602002602001604051908101604052809291908181526020016000905b828210156126c1578382906000526020600020906008020160405180610100016040529081600082015481526020016001820160009054906101000a900473ffffffffffffffffffffffffffffffffffffffff1673ffffffffffffffffffffffffffffffffffffffff1673ffffffffffffffffffffffffffffffffffffffff1681526020016002820180546124f690612e27565b80601f016020809104026020016040519081016040528092919081815260200182805461252290612e27565b801561256f5780601f106125445761010080835404028352916020019161256f565b820191906000526020600020905b81548152906001019060200180831161255257829003601f168201915b50505050508152602001600382015481526020016004820180548060200260200160405190810160405280929190818152602001828054801561260757602002820191906000526020600020905b8160009054906101000a900473ffffffffffffffffffffffffffffffffffffffff1673ffffffffffffffffffffffffffffffffffffffff16815260200190600101908083116125bd575b50505050508152602001600582015481526020016006820180548060200260200160405190810160405280929190818152602001828054801561269f57602002820191906000526020600020905b8160009054906101000a900473ffffffffffffffffffffffffffffffffffffffff1673ffffffffffffffffffffffffffffffffffffffff1681526020019060010190808311612655575b5050505050815260200160078201548152505081526020019060010190612462565b505050509050919050565b828054828255906000526020600020908101928215612745579160200282015b828111156127445782518260006101000a81548173ffffffffffffffffffffffffffffffffffffffff021916908373ffffffffffffffffffffffffffffffffffffffff160217905550916020019190600101906126ec565b5b5090506127529190612756565b5090565b5b8082111561276f576000816000905550600101612757565b5090565b600081519050919050565b600082825260208201905092915050565b6000819050602082019050919050565b6000819050919050565b6127b28161279f565b82525050565b600073ffffffffffffffffffffffffffffffffffffffff82169050919050565b60006127e3826127b8565b9050919050565b6127f3816127d8565b82525050565b600081519050919050565b600082825260208201905092915050565b60005b83811015612833578082015181840152602081019050612818565b60008484015250505050565b6000601f19601f8301169050919050565b600061285b826127f9565b6128658185612804565b9350612875818560208601612815565b61287e8161283f565b840191505092915050565b600081519050919050565b600082825260208201905092915050565b6000819050602082019050919050565b60006128c183836127ea565b60208301905092915050565b6000602082019050919050565b60006128e582612889565b6128ef8185612894565b93506128fa836128a5565b8060005b8381101561292b57815161291288826128b5565b975061291d836128cd565b9250506001810190506128fe565b5085935050505092915050565b60006101008301600083015161295160008601826127a9565b50602083015161296460208601826127ea565b506040830151848203604086015261297c8282612850565b915050606083015161299160608601826127a9565b50608083015184820360808601526129a982826128da565b91505060a08301516129be60a08601826127a9565b5060c083015184820360c08601526129d682826128da565b91505060e08301516129eb60e08601826127a9565b508091505092915050565b6000612a028383612938565b905092915050565b6000602082019050919050565b6000612a2282612773565b612a2c818561277e565b935083602082028501612a3e8561278f565b8060005b85811015612a7a5784840389528151612a5b85826129f6565b9450612a6683612a0a565b925060208a01995050600181019050612a42565b50829750879550505050505092915050565b60006020820190508181036000830152612aa68184612a17565b905092915050565b6000604051905090565b600080fd5b600080fd5b612acb816127d8565b8114612ad657600080fd5b50565b600081359050612ae881612ac2565b92915050565b612af78161279f565b8114612b0257600080fd5b50565b600081359050612b1481612aee565b92915050565b60008060408385031215612b3157612b30612ab8565b5b6000612b3f85828601612ad9565b9250506020612b5085828601612b05565b9150509250929050565b600082825260208201905092915050565b6000612b7682612889565b612b808185612b5a565b9350612b8b836128a5565b8060005b83811015612bbc578151612ba388826128b5565b9750612bae836128cd565b925050600181019050612b8f565b5085935050505092915050565b60006020820190508181036000830152612be38184612b6b565b905092915050565b600061ffff82169050919050565b612c0281612beb565b82525050565b6000602082019050612c1d6000830184612bf9565b92915050565b612c2c8161279f565b82525050565b6000602082019050612c476000830184612c23565b92915050565b600080fd5b600080fd5b7f4e487b7100000000000000000000000000000000000000000000000000000000600052604160045260246000fd5b612c8f8261283f565b810181811067ffffffffffffffff82111715612cae57612cad612c57565b5b80604052505050565b6000612cc1612aae565b9050612ccd8282612c86565b919050565b600067ffffffffffffffff821115612ced57612cec612c57565b5b612cf68261283f565b9050602081019050919050565b82818337600083830152505050565b6000612d25612d2084612cd2565b612cb7565b905082815260208101848484011115612d4157612d40612c52565b5b612d4c848285612d03565b509392505050565b600082601f830112612d6957612d68612c4d565b5b8135612d79848260208601612d12565b91505092915050565b600060208284031215612d9857612d97612ab8565b5b600082013567ffffffffffffffff811115612db657612db5612abd565b5b612dc284828501612d54565b91505092915050565b600060208284031215612de157612de0612ab8565b5b6000612def84828501612ad9565b91505092915050565b7f4e487b7100000000000000000000000000000000000000000000000000000000600052602260045260246000fd5b60006002820490506001821680612e3f57607f821691505b602082108103612e5257612e51612df8565b5b50919050565b7f4e487b7100000000000000000000000000000000000000000000000000000000600052603260045260246000fd5b600082825260208201905092915050565b7f506f7374206964206e6f7420666f756e64000000000000000000000000000000600082015250565b6000612ece601183612e87565b9150612ed982612e98565b602082019050919050565b60006020820190508181036000830152612efd81612ec1565b9050919050565b7f596f7520616c7265616479206c696b6564207468697320706f73740000000000600082015250565b6000612f3a601b83612e87565b9150612f4582612f04565b602082019050919050565b60006020820190508181036000830152612f6981612f2d565b9050919050565b7f4e487b7100000000000000000000000000000000000000000000000000000000600052601160045260246000fd5b6000612faa8261279f565b9150612fb58361279f565b9250828203905081811115612fcd57612fcc612f70565b5b92915050565b7f4e487b7100000000000000000000000000000000000000000000000000000000600052603160045260246000fd5b600061300d8261279f565b91507fffffffffffffffffffffffffffffffffffffffffffffffffffffffffffffffff820361303f5761303e612f70565b5b600182019050919050565b60006130558261279f565b91506000820361306857613067612f70565b5b600182039050919050565b7f596f7520616c726561647920756e6c696b6564207468697320706f7374000000600082015250565b60006130a9601d83612e87565b91506130b482613073565b602082019050919050565b600060208201905081810360008301526130d88161309c565b9050919050565b7f436f6e74656e7420697320746f6f206c6f6e672e000000000000000000000000600082015250565b6000613115601483612e87565b9150613120826130df565b602082019050919050565b6000602082019050818103600083015261314481613108565b9050919050565b60008190508160005260206000209050919050565b60006020601f8301049050919050565b600082821b905092915050565b6000600883026131ad7fffffffffffffffffffffffffffffffffffffffffffffffffffffffffffffffff82613170565b6131b78683613170565b95508019841693508086168417925050509392505050565b6000819050919050565b60006131f46131ef6131ea8461279f565b6131cf565b61279f565b9050919050565b6000819050919050565b61320e836131d9565b61322261321a826131fb565b84845461317d565b825550505050565b600090565b61323761322a565b613242818484613205565b505050565b5b818110156132665761325b60008261322f565b600181019050613248565b5050565b601f8211156132ab5761327c8161314b565b61328584613160565b81016020851015613294578190505b6132a86132a085613160565b830182613247565b50505b505050565b600082821c905092915050565b60006132ce600019846008026132b0565b1980831691505092915050565b60006132e783836132bd565b9150826002028217905092915050565b613300826127f9565b67ffffffffffffffff81111561331957613318612c57565b5b6133238254612e27565b61332e82828561326a565b600060209050601f831160018114613361576000841561334f578287015190505b61335985826132db565b8655506133c1565b601f19841661336f8661314b565b60005b8281101561339757848901518255600182019150602085019450602081019050613372565b868310156133b457848901516133b0601f8916826132bd565b8355505b6001600288020188555050505b505050505050565b6133d2816127d8565b82525050565b60006133e3826127f9565b6133ed8185612e87565b93506133fd818560208601612815565b6134068161283f565b840191505092915050565b60006080820190506134266000830187612c23565b61343360208301866133c9565b818103604083015261344581856133d8565b90506134546060830184612c23565b9594505050505056fea2646970667358221220e1e4540bfac4749a16f3819ea570d6d92a943578e922d7aa08d2f97bf3bb904964736f6c63430008180033",
  "linkReferences": {},
  "deployedLinkReferences": {}
}