{
  "_format": "hh-sol-artifact-1",
  "contractName": "SocialX",
  "sourceName": "contracts/SocialX.sol",
  "abi": [
    {
      "inputs": [],
      "name": "MAX_TWEET_LENGTH",
      "outputs": [
        {
          "internalType": "uint16",
          "name": "",
          "type": "uint16"
        }
      ],
      "stateMutability": "view",
      "type": "function"
    },
    {
      "inputs": [
        {
          "internalType": "string",
          "name": "_content",
          "type": "string"
        }
      ],
      "name": "createPost",
      "outputs": [],
      "stateMutability": "nonpayable",
      "type": "function"
    },
    {
      "inputs": [],
      "name": "getAllPosts",
      "outputs": [
        {
          "components": [
            {
              "internalType": "uint256",
              "name": "id",
              "type": "uint256"
            },
            {
              "internalType": "address",
              "name": "author",
              "type": "address"
            },
            {
              "internalType": "string",
              "name": "content",
              "type": "string"
            },
            {
              "internalType": "uint256",
              "name": "likes",
              "type": "uint256"
            },
            {
              "internalType": "address[]",
              "name": "likers",
              "type": "address[]"
            },
            {
              "internalType": "uint256",
              "name": "hates",
              "type": "uint256"
            },
            {
              "internalType": "address[]",
              "name": "haters",
              "type": "address[]"
            },
            {
              "internalType": "uint256",
              "name": "timestamp",
              "type": "uint256"
            }
          ],
          "internalType": "struct SocialX.Post[]",
          "name": "",
          "type": "tuple[]"
        }
      ],
      "stateMutability": "view",
      "type": "function"
    },
    {
      "inputs": [
        {
          "internalType": "address",
          "name": "author",
          "type": "address"
        }
      ],
      "name": "getAuthorPosts",
      "outputs": [
        {
          "components": [
            {
              "internalType": "uint256",
              "name": "id",
              "type": "uint256"
            },
            {
              "internalType": "address",
              "name": "author",
              "type": "address"
            },
            {
              "internalType": "string",
              "name": "content",
              "type": "string"
            },
            {
              "internalType": "uint256",
              "name": "likes",
              "type": "uint256"
            },
            {
              "internalType": "address[]",
              "name": "likers",
              "type": "address[]"
            },
            {
              "internalType": "uint256",
              "name": "hates",
              "type": "uint256"
            },
            {
              "internalType": "address[]",
              "name": "haters",
              "type": "address[]"
            },
            {
              "internalType": "uint256",
              "name": "timestamp",
              "type": "uint256"
            }
          ],
          "internalType": "struct SocialX.Post[]",
          "name": "",
          "type": "tuple[]"
        }
      ],
      "stateMutability": "view",
      "type": "function"
    },
    {
      "inputs": [
        {
          "internalType": "address",
          "name": "_author",
          "type": "address"
        },
        {
          "internalType": "uint256",
          "name": "_postId",
          "type": "uint256"
        }
      ],
      "name": "getPostHaters",
      "outputs": [
        {
          "internalType": "address[]",
          "name": "",
          "type": "address[]"
        }
      ],
      "stateMutability": "view",
      "type": "function"
    },
    {
      "inputs": [
        {
          "internalType": "address",
          "name": "_author",
          "type": "address"
        },
        {
          "internalType": "uint256",
          "name": "_postId",
          "type": "uint256"
        }
      ],
      "name": "getPostHates",
      "outputs": [
        {
          "internalType": "uint256",
          "name": "",
          "type": "uint256"
        }
      ],
      "stateMutability": "view",
      "type": "function"
    },
    {
      "inputs": [
        {
          "internalType": "address",
          "name": "_author",
          "type": "address"
        },
        {
          "internalType": "uint256",
          "name": "_postId",
          "type": "uint256"
        }
      ],
      "name": "getPostLikers",
      "outputs": [
        {
          "internalType": "address[]",
          "name": "",
          "type": "address[]"
        }
      ],
      "stateMutability": "view",
      "type": "function"
    },
    {
      "inputs": [
        {
          "internalType": "address",
          "name": "_author",
          "type": "address"
        },
        {
          "internalType": "uint256",
          "name": "_postId",
          "type": "uint256"
        }
      ],
      "name": "getPostLikes",
      "outputs": [
        {
          "internalType": "uint256",
          "name": "",
          "type": "uint256"
        }
      ],
      "stateMutability": "view",
      "type": "function"
    },
    {
      "inputs": [
        {
          "internalType": "address",
          "name": "_author",
          "type": "address"
        },
        {
          "internalType": "uint256",
          "name": "_postId",
          "type": "uint256"
        }
      ],
      "name": "likePost",
      "outputs": [],
      "stateMutability": "nonpayable",
      "type": "function"
    },
    {
      "inputs": [
        {
          "internalType": "address",
          "name": "_author",
          "type": "address"
        },
        {
          "internalType": "uint256",
          "name": "_postId",
          "type": "uint256"
        }
      ],
      "name": "unlikePost",
      "outputs": [],
      "stateMutability": "nonpayable",
      "type": "function"
    }
  ],
  "bytecode": "0x6080604052610118600360006101000a81548161ffff021916908361ffff16021790555034801561002f57600080fd5b506133818061003f6000396000f3fe608060405234801561001057600080fd5b506004361061009e5760003560e01c8063831142401161006657806383114240146101475780639900360614610177578063aaec09f0146101a7578063c7303c61146101d7578063fe5b6799146101f35761009e565b806330561100146100a357806348351529146100c15780636825bccc146100dd5780636eb107971461010d578063756f77301461012b575b600080fd5b6100ab610223565b6040516100b89190612a0e565b60405180910390f35b6100db60048036038101906100d69190612a9c565b6104af565b005b6100f760048036038101906100f29190612a9c565b6110c7565b6040516101049190612b4b565b60405180910390f35b6101156111b7565b6040516101229190612b8a565b60405180910390f35b61014560048036038101906101409190612a9c565b6111cb565b005b610161600480360381019061015c9190612a9c565b611de3565b60405161016e9190612b4b565b60405180910390f35b610191600480360381019061018c9190612a9c565b611ed3565b60405161019e9190612bb4565b60405180910390f35b6101c160048036038101906101bc9190612a9c565b611f3f565b6040516101ce9190612bb4565b60405180910390f35b6101f160048036038101906101ec9190612d04565b611fab565b005b61020d60048036038101906102089190612d4d565b612384565b60405161021a9190612a0e565b60405180910390f35b60606001805480602002602001604051908101604052809291908181526020016000905b828210156104a6578382906000526020600020906008020160405180610100016040529081600082015481526020016001820160009054906101000a900473ffffffffffffffffffffffffffffffffffffffff1673ffffffffffffffffffffffffffffffffffffffff1673ffffffffffffffffffffffffffffffffffffffff1681526020016002820180546102db90612da9565b80601f016020809104026020016040519081016040528092919081815260200182805461030790612da9565b80156103545780601f1061032957610100808354040283529160200191610354565b820191906000526020600020905b81548152906001019060200180831161033757829003601f168201915b5050505050815260200160038201548152602001600482018054806020026020016040519081016040528092919081815260200182805480156103ec57602002820191906000526020600020905b8160009054906101000a900473ffffffffffffffffffffffffffffffffffffffff1673ffffffffffffffffffffffffffffffffffffffff16815260200190600101908083116103a2575b50505050508152602001600582015481526020016006820180548060200260200160405190810160405280929190818152602001828054801561048457602002820191906000526020600020905b8160009054906101000a900473ffffffffffffffffffffffffffffffffffffffff1673ffffffffffffffffffffffffffffffffffffffff168152602001906001019080831161043a575b5050505050815260200160078201548152505081526020019060010190610247565b50505050905090565b806000808473ffffffffffffffffffffffffffffffffffffffff1673ffffffffffffffffffffffffffffffffffffffff1681526020019081526020016000208281548110610500576104ff612dda565b5b90600052602060002090600802016000015414610552576040517f08c379a000000000000000000000000000000000000000000000000000000000815260040161054990612e66565b60405180910390fd5b60005b6000808473ffffffffffffffffffffffffffffffffffffffff1673ffffffffffffffffffffffffffffffffffffffff16815260200190815260200160002082815481106105a5576105a4612dda565b5b9060005260206000209060080201600401805490508110156106d9573373ffffffffffffffffffffffffffffffffffffffff166000808573ffffffffffffffffffffffffffffffffffffffff1673ffffffffffffffffffffffffffffffffffffffff168152602001908152602001600020838154811061062857610627612dda565b5b9060005260206000209060080201600401828154811061064b5761064a612dda565b5b9060005260206000200160009054906101000a900473ffffffffffffffffffffffffffffffffffffffff1673ffffffffffffffffffffffffffffffffffffffff16036106cc576040517f08c379a00000000000000000000000000000000000000000000000000000000081526004016106c390612ed2565b60405180910390fd5b8080600101915050610555565b5060005b6000808473ffffffffffffffffffffffffffffffffffffffff1673ffffffffffffffffffffffffffffffffffffffff168152602001908152602001600020828154811061072d5761072c612dda565b5b906000526020600020906008020160060180549050811015610b69573373ffffffffffffffffffffffffffffffffffffffff166000808573ffffffffffffffffffffffffffffffffffffffff1673ffffffffffffffffffffffffffffffffffffffff16815260200190815260200160002083815481106107b0576107af612dda565b5b906000526020600020906008020160060182815481106107d3576107d2612dda565b5b9060005260206000200160009054906101000a900473ffffffffffffffffffffffffffffffffffffffff1673ffffffffffffffffffffffffffffffffffffffff1603610b5c576000808473ffffffffffffffffffffffffffffffffffffffff1673ffffffffffffffffffffffffffffffffffffffff168152602001908152602001600020828154811061086957610868612dda565b5b906000526020600020906008020160060160016000808673ffffffffffffffffffffffffffffffffffffffff1673ffffffffffffffffffffffffffffffffffffffff16815260200190815260200160002084815481106108cc576108cb612dda565b5b9060005260206000209060080201600601805490506108eb9190612f21565b815481106108fc576108fb612dda565b5b9060005260206000200160009054906101000a900473ffffffffffffffffffffffffffffffffffffffff166000808573ffffffffffffffffffffffffffffffffffffffff1673ffffffffffffffffffffffffffffffffffffffff168152602001908152602001600020838154811061097757610976612dda565b5b9060005260206000209060080201600601828154811061099a57610999612dda565b5b9060005260206000200160006101000a81548173ffffffffffffffffffffffffffffffffffffffff021916908373ffffffffffffffffffffffffffffffffffffffff1602179055506000808473ffffffffffffffffffffffffffffffffffffffff1673ffffffffffffffffffffffffffffffffffffffff1681526020019081526020016000208281548110610a3257610a31612dda565b5b9060005260206000209060080201600601805480610a5357610a52612f55565b5b6001900381819060005260206000200160006101000a81549073ffffffffffffffffffffffffffffffffffffffff0219169055905560016000808573ffffffffffffffffffffffffffffffffffffffff1673ffffffffffffffffffffffffffffffffffffffff1681526020019081526020016000208381548110610ada57610ad9612dda565b5b906000526020600020906008020160050154610af69190612f21565b6000808573ffffffffffffffffffffffffffffffffffffffff1673ffffffffffffffffffffffffffffffffffffffff1681526020019081526020016000208381548110610b4657610b45612dda565b5b9060005260206000209060080201600501819055505b80806001019150506106dd565b506000808373ffffffffffffffffffffffffffffffffffffffff1673ffffffffffffffffffffffffffffffffffffffff1681526020019081526020016000208181548110610bba57610bb9612dda565b5b9060005260206000209060080201600401339080600181540180825580915050600190039060005260206000200160009091909190916101000a81548173ffffffffffffffffffffffffffffffffffffffff021916908373ffffffffffffffffffffffffffffffffffffffff1602179055506000808373ffffffffffffffffffffffffffffffffffffffff1673ffffffffffffffffffffffffffffffffffffffff1681526020019081526020016000208181548110610c7c57610c7b612dda565b5b90600052602060002090600802016003016000815480929190610c9e90612f84565b919050555060005b6001805490508110156110c2578160018281548110610cc857610cc7612dda565b5b906000526020600020906008020160000154148015610d5757508273ffffffffffffffffffffffffffffffffffffffff1660018281548110610d0d57610d0c612dda565b5b906000526020600020906008020160010160009054906101000a900473ffffffffffffffffffffffffffffffffffffffff1673ffffffffffffffffffffffffffffffffffffffff16145b156110b55760018181548110610d7057610d6f612dda565b5b9060005260206000209060080201600401339080600181540180825580915050600190039060005260206000200160009091909190916101000a81548173ffffffffffffffffffffffffffffffffffffffff021916908373ffffffffffffffffffffffffffffffffffffffff16021790555060018181548110610df657610df5612dda565b5b90600052602060002090600802016003016000815480929190610e1890612f84565b919050555060005b60018281548110610e3457610e33612dda565b5b9060005260206000209060080201600601805490508110156110af573373ffffffffffffffffffffffffffffffffffffffff1660018381548110610e7b57610e7a612dda565b5b90600052602060002090600802016006018281548110610e9e57610e9d612dda565b5b9060005260206000200160009054906101000a900473ffffffffffffffffffffffffffffffffffffffff1673ffffffffffffffffffffffffffffffffffffffff16036110a25760018281548110610ef857610ef7612dda565b5b90600052602060002090600802016006016001808481548110610f1e57610f1d612dda565b5b906000526020600020906008020160060180549050610f3d9190612f21565b81548110610f4e57610f4d612dda565b5b9060005260206000200160009054906101000a900473ffffffffffffffffffffffffffffffffffffffff1660018381548110610f8d57610f8c612dda565b5b90600052602060002090600802016006018281548110610fb057610faf612dda565b5b9060005260206000200160006101000a81548173ffffffffffffffffffffffffffffffffffffffff021916908373ffffffffffffffffffffffffffffffffffffffff1602179055506001828154811061100c5761100b612dda565b5b906000526020600020906008020160060180548061102d5761102c612f55565b5b6001900381819060005260206000200160006101000a81549073ffffffffffffffffffffffffffffffffffffffff021916905590556001828154811061107657611075612dda565b5b9060005260206000209060080201600501600081548092919061109890612fcc565b91905055506110af565b8080600101915050610e20565b506110c2565b8080600101915050610ca6565b505050565b60606000808473ffffffffffffffffffffffffffffffffffffffff1673ffffffffffffffffffffffffffffffffffffffff168152602001908152602001600020828154811061111957611118612dda565b5b90600052602060002090600802016006018054806020026020016040519081016040528092919081815260200182805480156111aa57602002820191906000526020600020905b8160009054906101000a900473ffffffffffffffffffffffffffffffffffffffff1673ffffffffffffffffffffffffffffffffffffffff1681526020019060010190808311611160575b5050505050905092915050565b600360009054906101000a900461ffff1681565b806000808473ffffffffffffffffffffffffffffffffffffffff1673ffffffffffffffffffffffffffffffffffffffff168152602001908152602001600020828154811061121c5761121b612dda565b5b9060005260206000209060080201600001541461126e576040517f08c379a000000000000000000000000000000000000000000000000000000000815260040161126590612e66565b60405180910390fd5b60005b6000808473ffffffffffffffffffffffffffffffffffffffff1673ffffffffffffffffffffffffffffffffffffffff16815260200190815260200160002082815481106112c1576112c0612dda565b5b9060005260206000209060080201600601805490508110156113f5573373ffffffffffffffffffffffffffffffffffffffff166000808573ffffffffffffffffffffffffffffffffffffffff1673ffffffffffffffffffffffffffffffffffffffff168152602001908152602001600020838154811061134457611343612dda565b5b9060005260206000209060080201600601828154811061136757611366612dda565b5b9060005260206000200160009054906101000a900473ffffffffffffffffffffffffffffffffffffffff1673ffffffffffffffffffffffffffffffffffffffff16036113e8576040517f08c379a00000000000000000000000000000000000000000000000000000000081526004016113df90613041565b60405180910390fd5b8080600101915050611271565b5060005b6000808473ffffffffffffffffffffffffffffffffffffffff1673ffffffffffffffffffffffffffffffffffffffff168152602001908152602001600020828154811061144957611448612dda565b5b906000526020600020906008020160040180549050811015611885573373ffffffffffffffffffffffffffffffffffffffff166000808573ffffffffffffffffffffffffffffffffffffffff1673ffffffffffffffffffffffffffffffffffffffff16815260200190815260200160002083815481106114cc576114cb612dda565b5b906000526020600020906008020160040182815481106114ef576114ee612dda565b5b9060005260206000200160009054906101000a900473ffffffffffffffffffffffffffffffffffffffff1673ffffffffffffffffffffffffffffffffffffffff1603611878576000808473ffffffffffffffffffffffffffffffffffffffff1673ffffffffffffffffffffffffffffffffffffffff168152602001908152602001600020828154811061158557611584612dda565b5b906000526020600020906008020160040160016000808673ffffffffffffffffffffffffffffffffffffffff1673ffffffffffffffffffffffffffffffffffffffff16815260200190815260200160002084815481106115e8576115e7612dda565b5b9060005260206000209060080201600401805490506116079190612f21565b8154811061161857611617612dda565b5b9060005260206000200160009054906101000a900473ffffffffffffffffffffffffffffffffffffffff166000808573ffffffffffffffffffffffffffffffffffffffff1673ffffffffffffffffffffffffffffffffffffffff168152602001908152602001600020838154811061169357611692612dda565b5b906000526020600020906008020160040182815481106116b6576116b5612dda565b5b9060005260206000200160006101000a81548173ffffffffffffffffffffffffffffffffffffffff021916908373ffffffffffffffffffffffffffffffffffffffff1602179055506000808473ffffffffffffffffffffffffffffffffffffffff1673ffffffffffffffffffffffffffffffffffffffff168152602001908152602001600020828154811061174e5761174d612dda565b5b906000526020600020906008020160040180548061176f5761176e612f55565b5b6001900381819060005260206000200160006101000a81549073ffffffffffffffffffffffffffffffffffffffff0219169055905560016000808573ffffffffffffffffffffffffffffffffffffffff1673ffffffffffffffffffffffffffffffffffffffff16815260200190815260200160002083815481106117f6576117f5612dda565b5b9060005260206000209060080201600301546118129190612f21565b6000808573ffffffffffffffffffffffffffffffffffffffff1673ffffffffffffffffffffffffffffffffffffffff168152602001908152602001600020838154811061186257611861612dda565b5b9060005260206000209060080201600301819055505b80806001019150506113f9565b506000808373ffffffffffffffffffffffffffffffffffffffff1673ffffffffffffffffffffffffffffffffffffffff16815260200190815260200160002081815481106118d6576118d5612dda565b5b9060005260206000209060080201600601339080600181540180825580915050600190039060005260206000200160009091909190916101000a81548173ffffffffffffffffffffffffffffffffffffffff021916908373ffffffffffffffffffffffffffffffffffffffff1602179055506000808373ffffffffffffffffffffffffffffffffffffffff1673ffffffffffffffffffffffffffffffffffffffff168152602001908152602001600020818154811061199857611997612dda565b5b906000526020600020906008020160050160008154809291906119ba90612f84565b919050555060005b600180549050811015611dde5781600182815481106119e4576119e3612dda565b5b906000526020600020906008020160000154148015611a7357508273ffffffffffffffffffffffffffffffffffffffff1660018281548110611a2957611a28612dda565b5b906000526020600020906008020160010160009054906101000a900473ffffffffffffffffffffffffffffffffffffffff1673ffffffffffffffffffffffffffffffffffffffff16145b15611dd15760018181548110611a8c57611a8b612dda565b5b9060005260206000209060080201600601339080600181540180825580915050600190039060005260206000200160009091909190916101000a81548173ffffffffffffffffffffffffffffffffffffffff021916908373ffffffffffffffffffffffffffffffffffffffff16021790555060018181548110611b1257611b11612dda565b5b90600052602060002090600802016005016000815480929190611b3490612f84565b919050555060005b60018281548110611b5057611b4f612dda565b5b906000526020600020906008020160040180549050811015611dcb573373ffffffffffffffffffffffffffffffffffffffff1660018381548110611b9757611b96612dda565b5b90600052602060002090600802016004018281548110611bba57611bb9612dda565b5b9060005260206000200160009054906101000a900473ffffffffffffffffffffffffffffffffffffffff1673ffffffffffffffffffffffffffffffffffffffff1603611dbe5760018281548110611c1457611c13612dda565b5b90600052602060002090600802016004016001808481548110611c3a57611c39612dda565b5b906000526020600020906008020160040180549050611c599190612f21565b81548110611c6a57611c69612dda565b5b9060005260206000200160009054906101000a900473ffffffffffffffffffffffffffffffffffffffff1660018381548110611ca957611ca8612dda565b5b90600052602060002090600802016004018281548110611ccc57611ccb612dda565b5b9060005260206000200160006101000a81548173ffffffffffffffffffffffffffffffffffffffff021916908373ffffffffffffffffffffffffffffffffffffffff16021790555060018281548110611d2857611d27612dda565b5b9060005260206000209060080201600401805480611d4957611d48612f55565b5b6001900381819060005260206000200160006101000a81549073ffffffffffffffffffffffffffffffffffffffff0219169055905560018281548110611d9257611d91612dda565b5b90600052602060002090600802016003016000815480929190611db490612fcc565b9190505550611dcb565b8080600101915050611b3c565b50611dde565b80806001019150506119c2565b505050565b60606000808473ffffffffffffffffffffffffffffffffffffffff1673ffffffffffffffffffffffffffffffffffffffff1681526020019081526020016000208281548110611e3557611e34612dda565b5b9060005260206000209060080201600401805480602002602001604051908101604052809291908181526020018280548015611ec657602002820191906000526020600020905b8160009054906101000a900473ffffffffffffffffffffffffffffffffffffffff1673ffffffffffffffffffffffffffffffffffffffff1681526020019060010190808311611e7c575b5050505050905092915050565b60008060008473ffffffffffffffffffffffffffffffffffffffff1673ffffffffffffffffffffffffffffffffffffffff1681526020019081526020016000208281548110611f2557611f24612dda565b5b906000526020600020906008020160050154905092915050565b60008060008473ffffffffffffffffffffffffffffffffffffffff1673ffffffffffffffffffffffffffffffffffffffff1681526020019081526020016000208281548110611f9157611f90612dda565b5b906000526020600020906008020160030154905092915050565b600360009054906101000a900461ffff1661ffff1681511115612003576040517f08c379a0000000000000000000000000000000000000000000000000000000008152600401611ffa906130ad565b60405180910390fd5b600060405180610100016040528060018054905081526020013373ffffffffffffffffffffffffffffffffffffffff1681526020018381526020016000815260200160028054806020026020016040519081016040528092919081815260200182805480156120c757602002820191906000526020600020905b8160009054906101000a900473ffffffffffffffffffffffffffffffffffffffff1673ffffffffffffffffffffffffffffffffffffffff168152602001906001019080831161207d575b5050505050815260200160008152602001600280548060200260200160405190810160405280929190818152602001828054801561215a57602002820191906000526020600020905b8160009054906101000a900473ffffffffffffffffffffffffffffffffffffffff1673ffffffffffffffffffffffffffffffffffffffff1681526020019060010190808311612110575b505050505081526020014281525090506000803373ffffffffffffffffffffffffffffffffffffffff1673ffffffffffffffffffffffffffffffffffffffff1681526020019081526020016000208190806001815401808255809150506001900390600052602060002090600802016000909190919091506000820151816000015560208201518160010160006101000a81548173ffffffffffffffffffffffffffffffffffffffff021916908373ffffffffffffffffffffffffffffffffffffffff16021790555060408201518160020190816122389190613279565b5060608201518160030155608082015181600401908051906020019061225f92919061264e565b5060a0820151816005015560c082015181600601908051906020019061228692919061264e565b5060e08201518160070155505060018190806001815401808255809150506001900390600052602060002090600802016000909190919091506000820151816000015560208201518160010160006101000a81548173ffffffffffffffffffffffffffffffffffffffff021916908373ffffffffffffffffffffffffffffffffffffffff16021790555060408201518160020190816123259190613279565b5060608201518160030155608082015181600401908051906020019061234c92919061264e565b5060a0820151816005015560c082015181600601908051906020019061237392919061264e565b5060e0820151816007015550505050565b60606000808373ffffffffffffffffffffffffffffffffffffffff1673ffffffffffffffffffffffffffffffffffffffff168152602001908152602001600020805480602002602001604051908101604052809291908181526020016000905b82821015612643578382906000526020600020906008020160405180610100016040529081600082015481526020016001820160009054906101000a900473ffffffffffffffffffffffffffffffffffffffff1673ffffffffffffffffffffffffffffffffffffffff1673ffffffffffffffffffffffffffffffffffffffff16815260200160028201805461247890612da9565b80601f01602080910402602001604051908101604052809291908181526020018280546124a490612da9565b80156124f15780601f106124c6576101008083540402835291602001916124f1565b820191906000526020600020905b8154815290600101906020018083116124d457829003601f168201915b50505050508152602001600382015481526020016004820180548060200260200160405190810160405280929190818152602001828054801561258957602002820191906000526020600020905b8160009054906101000a900473ffffffffffffffffffffffffffffffffffffffff1673ffffffffffffffffffffffffffffffffffffffff168152602001906001019080831161253f575b50505050508152602001600582015481526020016006820180548060200260200160405190810160405280929190818152602001828054801561262157602002820191906000526020600020905b8160009054906101000a900473ffffffffffffffffffffffffffffffffffffffff1673ffffffffffffffffffffffffffffffffffffffff16815260200190600101908083116125d7575b50505050508152602001600782015481525050815260200190600101906123e4565b505050509050919050565b8280548282559060005260206000209081019282156126c7579160200282015b828111156126c65782518260006101000a81548173ffffffffffffffffffffffffffffffffffffffff021916908373ffffffffffffffffffffffffffffffffffffffff1602179055509160200191906001019061266e565b5b5090506126d491906126d8565b5090565b5b808211156126f15760008160009055506001016126d9565b5090565b600081519050919050565b600082825260208201905092915050565b6000819050602082019050919050565b6000819050919050565b61273481612721565b82525050565b600073ffffffffffffffffffffffffffffffffffffffff82169050919050565b60006127658261273a565b9050919050565b6127758161275a565b82525050565b600081519050919050565b600082825260208201905092915050565b60005b838110156127b557808201518184015260208101905061279a565b60008484015250505050565b6000601f19601f8301169050919050565b60006127dd8261277b565b6127e78185612786565b93506127f7818560208601612797565b612800816127c1565b840191505092915050565b600081519050919050565b600082825260208201905092915050565b6000819050602082019050919050565b6000612843838361276c565b60208301905092915050565b6000602082019050919050565b60006128678261280b565b6128718185612816565b935061287c83612827565b8060005b838110156128ad5781516128948882612837565b975061289f8361284f565b925050600181019050612880565b5085935050505092915050565b6000610100830160008301516128d3600086018261272b565b5060208301516128e6602086018261276c565b50604083015184820360408601526128fe82826127d2565b9150506060830151612913606086018261272b565b506080830151848203608086015261292b828261285c565b91505060a083015161294060a086018261272b565b5060c083015184820360c0860152612958828261285c565b91505060e083015161296d60e086018261272b565b508091505092915050565b600061298483836128ba565b905092915050565b6000602082019050919050565b60006129a4826126f5565b6129ae8185612700565b9350836020820285016129c085612711565b8060005b858110156129fc57848403895281516129dd8582612978565b94506129e88361298c565b925060208a019950506001810190506129c4565b50829750879550505050505092915050565b60006020820190508181036000830152612a288184612999565b905092915050565b6000604051905090565b600080fd5b600080fd5b612a4d8161275a565b8114612a5857600080fd5b50565b600081359050612a6a81612a44565b92915050565b612a7981612721565b8114612a8457600080fd5b50565b600081359050612a9681612a70565b92915050565b60008060408385031215612ab357612ab2612a3a565b5b6000612ac185828601612a5b565b9250506020612ad285828601612a87565b9150509250929050565b600082825260208201905092915050565b6000612af88261280b565b612b028185612adc565b9350612b0d83612827565b8060005b83811015612b3e578151612b258882612837565b9750612b308361284f565b925050600181019050612b11565b5085935050505092915050565b60006020820190508181036000830152612b658184612aed565b905092915050565b600061ffff82169050919050565b612b8481612b6d565b82525050565b6000602082019050612b9f6000830184612b7b565b92915050565b612bae81612721565b82525050565b6000602082019050612bc96000830184612ba5565b92915050565b600080fd5b600080fd5b7f4e487b7100000000000000000000000000000000000000000000000000000000600052604160045260246000fd5b612c11826127c1565b810181811067ffffffffffffffff82111715612c3057612c2f612bd9565b5b80604052505050565b6000612c43612a30565b9050612c4f8282612c08565b919050565b600067ffffffffffffffff821115612c6f57612c6e612bd9565b5b612c78826127c1565b9050602081019050919050565b82818337600083830152505050565b6000612ca7612ca284612c54565b612c39565b905082815260208101848484011115612cc357612cc2612bd4565b5b612cce848285612c85565b509392505050565b600082601f830112612ceb57612cea612bcf565b5b8135612cfb848260208601612c94565b91505092915050565b600060208284031215612d1a57612d19612a3a565b5b600082013567ffffffffffffffff811115612d3857612d37612a3f565b5b612d4484828501612cd6565b91505092915050565b600060208284031215612d6357612d62612a3a565b5b6000612d7184828501612a5b565b91505092915050565b7f4e487b7100000000000000000000000000000000000000000000000000000000600052602260045260246000fd5b60006002820490506001821680612dc157607f821691505b602082108103612dd457612dd3612d7a565b5b50919050565b7f4e487b7100000000000000000000000000000000000000000000000000000000600052603260045260246000fd5b600082825260208201905092915050565b7f506f7374206964206e6f7420666f756e64000000000000000000000000000000600082015250565b6000612e50601183612e09565b9150612e5b82612e1a565b602082019050919050565b60006020820190508181036000830152612e7f81612e43565b9050919050565b7f596f7520616c7265616479206c696b6564207468697320706f73740000000000600082015250565b6000612ebc601b83612e09565b9150612ec782612e86565b602082019050919050565b60006020820190508181036000830152612eeb81612eaf565b9050919050565b7f4e487b7100000000000000000000000000000000000000000000000000000000600052601160045260246000fd5b6000612f2c82612721565b9150612f3783612721565b9250828203905081811115612f4f57612f4e612ef2565b5b92915050565b7f4e487b7100000000000000000000000000000000000000000000000000000000600052603160045260246000fd5b6000612f8f82612721565b91507fffffffffffffffffffffffffffffffffffffffffffffffffffffffffffffffff8203612fc157612fc0612ef2565b5b600182019050919050565b6000612fd782612721565b915060008203612fea57612fe9612ef2565b5b600182039050919050565b7f596f7520616c726561647920756e6c696b6564207468697320706f7374000000600082015250565b600061302b601d83612e09565b915061303682612ff5565b602082019050919050565b6000602082019050818103600083015261305a8161301e565b9050919050565b7f436f6e74656e7420697320746f6f206c6f6e672e000000000000000000000000600082015250565b6000613097601483612e09565b91506130a282613061565b602082019050919050565b600060208201905081810360008301526130c68161308a565b9050919050565b60008190508160005260206000209050919050565b60006020601f8301049050919050565b600082821b905092915050565b60006008830261312f7fffffffffffffffffffffffffffffffffffffffffffffffffffffffffffffffff826130f2565b61313986836130f2565b95508019841693508086168417925050509392505050565b6000819050919050565b600061317661317161316c84612721565b613151565b612721565b9050919050565b6000819050919050565b6131908361315b565b6131a461319c8261317d565b8484546130ff565b825550505050565b600090565b6131b96131ac565b6131c4818484613187565b505050565b5b818110156131e8576131dd6000826131b1565b6001810190506131ca565b5050565b601f82111561322d576131fe816130cd565b613207846130e2565b81016020851015613216578190505b61322a613222856130e2565b8301826131c9565b50505b505050565b600082821c905092915050565b600061325060001984600802613232565b1980831691505092915050565b6000613269838361323f565b9150826002028217905092915050565b6132828261277b565b67ffffffffffffffff81111561329b5761329a612bd9565b5b6132a58254612da9565b6132b08282856131ec565b600060209050601f8311600181146132e357600084156132d1578287015190505b6132db858261325d565b865550613343565b601f1984166132f1866130cd565b60005b82811015613319578489015182556001820191506020850194506020810190506132f4565b868310156133365784890151613332601f89168261323f565b8355505b6001600288020188555050505b50505050505056fea26469706673582212208428963e4e60508f8d99c64db8c0a0c61c32c01daf483500f672b281413adf6164736f6c63430008180033",
  "linkReferences": {},
  "deployedLinkReferences": {}
}